:0400000085EF00F098
:060008003882D0EF03F086
:100018003880D8CF13F0E8CF14F0E0CF15F0FACF3E
:1000280016F0FBCF17F0E9CF18F0EACF19F0E1CFBF
:100038001AF0E2CF1BF0D9CF1CF0DACF1DF0F3CFC6
:100048001EF0F4CF1FF0F6CF20F0F7CF21F0F8CF55
:1000580022F0F5CF23F038C024F039C025F03AC09B
:1000680026F03BC027F09DB29EA21FD09E9237502B
:10007800D8B41BD037063750D8A417D00A0E376E1D
:1000880034823650D8B411D036063650D8A40DD0A4
:100098000A0E366E34843550D8B407D0350635503C
:1000A800D8A403D00A0E356E348627C03BF026C08C
:1000B8003AF025C039F024C038F023C0F5FF22C03B
:1000C800F8FF21C0F7FF20C0F6FF1FC0F4FF1EC0D5
:1000D800F3FF1DC0DAFF1CC0D9FF1BC0E2FF1AC026
:1000E800E1FF19C0EAFF18C0E9FF17C0FBFF16C0FF
:1000F800FAFF15C0E0FF14C0E8FF13C0D8FF38901E
:06010800100068EF05F095
:1006000000220400550200000000000091D3051FE5
:10061000110000000001000064FF02001F052A8392
:100620001110A2130C0A9F5A2929C0A502531800C1
:10063000B40000010000AEE0350000F410E24220FA
:1006400000810066EC1CF0801408910202D0709AC0
:100650000C000350001F043F7F42CD2F1B42B77D8B
:100660001A004AEC06F034A6FED73496FF0E286E28
:100670007F0EA9EC04F034A6FED7349653EC06F0B6
:10068000336E34A6FED734963304D8A405D0020EB8
:10069000286E600EA9EC04F034A6FED7349653EC15
:1006A00006F0336E020E3318D8A40AD062EC04F0C0
:1006B000010E1AEC04F0336E020E1AEC04F0336EE5
:1006C00000F0040E1AEC04F0336E00F000F000F0BD
:1006D0006E0EEFEC04F02D6E010E286E6C0EA9EC80
:1006E00004F0010E286E690EA9EC04F0800E0001E2
:1006F000A66F000EA76F090EA86F00EC06F06E0E35
:10070000EFEC04F02D6E00F0090E5BEC06F0010E2C
:1007100062EC06F0060E1AEC04F0336E00F0030EE5
:10072000286E6C0EA9EC04F034A6FED7349653EC78
:1007300006F0336E020E3318D8A4F6D7010E286ED9
:100740006C0EA9EC04F0010E286E690EA9EC04F001
:10075000800E0001A66F000EA76F090EA86F00ECB7
:1007600006F06E0EEFEC04F02D6E00F0090E5BEC5F
:1007700006F0010E62EC06F0060E1AEC04F0336E81
:1007800089B404D00001AC6BAC2B02D00001AC6B7F
:10079000AC47AC478950AC19FB0BAC19896EC4D778
:1007A000FACF01F0FBCF02F0E9CF03F0EACF04F07B
:1007B000E1CF05F0E2CF06F0D9CF07F0DACF08F0AD
:1007C000F3CF09F0F4CF0AF0F6CF0BF0F7CF0CF02F
:1007D000F8CF0DF0F5CF0EF038C00FF039C010F0A3
:1007E0003AC011F03BC012F012C03BF011C03AF019
:1007F00010C039F00FC038F00EC0F5FF0DC0F8FF83
:100800000CC0F7FF0BC0F6FF0AC0F4FF09C0F3FFEE
:1008100008C0DAFF07C0D9FF06C0E2FF05C0E1FF4C
:1008200004C0EAFF03C0E9FF02C0FBFF01C0FAFFFA
:10083000389211000001A66F0001A629D8A41BD090
:10084000FF0E286E7F0EA9EC04F0000E1200100EB1
:10085000000109D0020E07D0040E05D0200E03D0EF
:10086000080E01D0400EA76F1BD053EC06F000011C
:10087000A76FA75112000001A651010AD8B4E7D70B
:10088000030AD8B4E7D7010AD8B4E6D7070AD8B420
:10089000E5D7010AD8B4E4D7030AD8B4E3D7E5D73B
:1008A000A7C028F0600EA9EC04F053EC06F002D0CB
:1008B00053EC06F00001A76FA651A719D8A4F8D7EA
:1008C000A75112000C0E0001A66F420EA76F060E74
:1008D000A86F000EE2EC05F00C0E0001A66F360EBC
:1008E000A76F060EA86F0C0EE2EC05F0080E0001D3
:1008F000A66F590EA76F060EA86F180EE2EC05F052
:10090000180E0001A66F1E0EA76F060EA86F200E10
:10091000E2EC05F01D0E0001A66F010EA76F060E9A
:10092000A86F380EE2EC05F00B0E0001A66F4E0E1C
:10093000A76F060EA86F550EE2EC05F000F09AECDA
:1009400005F0000E69EC06F0000E70EC06F000F009
:1009500012000001A06F800E0001A36F000EA26FB5
:10096000A0C029F07F0E29162950A46FA56BA451B1
:10097000A56FA46B2850A425A46F000EA521A56F18
:10098000949A8A92A451A215296EA551A3152A6E94
:1009900029502A10D8B402D08B8A01D08B9A000E2D
:1009A000A16F17D08B86D890A331296EA231A26F88
:1009B00029C0A3F08B96A451A215296EA551A315A9
:1009C0002A6E29502A10D8B402D08B8A01D08B9A73
:1009D000A12B0F0EA165E6D78B9A8A821200286E92
:1009E000000E296E800E2B6E28508009296E949A75
:1009F0008A922B5029140009D8B402D08B8A01D0D6
:100A00008B9A000E2A6E0ED08B86D8902B302B6ED0
:100A10008B962B5029140009D8B402D08B8A01D0B0
:100A20008B9A2A2A060E2A64EFD78B86948A8B9695
:100A3000000E296E800E2B6E000E2A6E0BD08B8658
:100A400082AA03D02B502910296E8B96D8902B3078
:100A50002B6E2A2A070E2A64F2D78B9A949A8A82DE
:100A6000295012000001A06F000E0001A46F800E3B
:100A7000A36FA0C0A1F0A26B8A96000EA56FA5512E
:100A8000D8A402D0A52BFBD7000EA56F070EA56535
:100A900001D018D08B86D890A431286EA331A36FD3
:100AA00028C0A4F08B96A151A315286EA251A415BD
:100AB000296E28502910D8B402D08B8A01D08B9A85
:100AC000A52BE4D7050EE82EFED700F08A8612008B
:100AD000360EF66E0C0EF76E000EF86E00EE80F01D
:100AE00010EE20F00900F5CFEEFFE550E150FAE1FD
:100AF000060EF66E0D0EF76E000EF86E0900F5CFBD
:100B000035F00900F5CF36F00900F5CF37F000EEEB
:100B100060F0200EEE6AE806FDE100EE2CF0090E12
:100B2000EE6AE806FDE138903892000EF86E00019A
:100B300031EF03F0319E319C318A319831963194F6
:100B40003192318031C028F0680EA9EC04F0680EB3
:100B5000EFEC04F00001A66F3080309230943086C4
:100B60003088309A30C028F0660EA9EC04F02F903F
:100B70002F822F942F862F982FC028F0670EA9EC74
:100B800004F02BEC06F01200000E7E6E000E7F6E5D
:100B90008A8293928A8693968B9694968B9A949A4D
:100BA000938089929292899492948A9493948A9849
:100BB00093988A9A939A9286928A928A948E828C39
:100BC000949C12000001A96F000E0001AB6FA9C038
:100BD000AAF0000EAB6F0FD0A7C0F6FFA8C0F7FFBA
:100BE0000800F5CF28F0AA51A9EC04F00001AA2BC7
:100BF000A74BA82BAB2BA651AB5DD8B01200ECD7FE
:100C0000949A8B96000E2A6E10D0A6C0D9FFA7C06A
:100C1000DAFFDF5032EC05F00001A64BA72B0A0EDD
:100C2000E82EFED700F000F02A2A0001A8512A5C25
:100C3000D8B01200EAD7010530450060000210006C
:100C400000000000000000000000000000000000A4
:100C50000000000000003250FC0B0109326E3250DF
:100C6000F30B0409326ECF0E321632C028F0650E37
:100C7000A9EC04F01200CA86CA88CA8ACA8CCA5073
:100C8000FC0B0109CA6E7C0ECB6ECA949F929D929A
:100C90009E921200C4EC05F03BEC06F077EC06F0F7
:100CA0007DEC06F01200610EEFEC04F00001A06F85
:100CB000A0510F0B12002B6E2BC028F0460EA9EC92
:100CC00004F012002B6E2BC028F0480EA9EC04F0A3
:100CD00012002B6E2BC028F0470EA9EC04F0120076
:100CE0002B6E2BC028F04C0EA9EC04F01200000E65
:100CF000CC6E9E929D82CA841200D08EF28EF28CAF
:090D0000F292F28812000A0A0ABC
:020000040020DA
:08000000FFFFFFFFFFFFFFFF00
:020000040030CA
:0E000000FF861114FF8100FF0FC00FE00F40BC
:00000001FF
